:100000000C9448000C9465000C9465000C946500F9
:100010000C9465000C9465000C9465000C946500CC
:100020000C9465000C9465000C9465000C946500BC
:100030000C9465000C9468010C9465000C946500A8
:100040000C9465000C9465000C9465000C9465009C
:100050000C9465004D41535445522067657374619B
:10006000727465742C2062697474652044617465CF
:100070006E206765666F6C677420766F6E20456EC4
:100080007465722065696E676562656E0D0A0000B1
:1000900011241FBECFE5D8E0DEBFCDBF10E0A0E643
:1000A000B0E0EEE2F4E002C005900D92A23CB10790
:1000B000D9F710E0A2ECB0E001C01D92A43EB10758
:1000C000E1F70E9467000C9415020C9400000E9456
:1000D0008F010E940201789484E590E00E94AA01B9
:1000E00080E690E00E94A0018EEB90E00E94A001CB
:1000F0008091D3008130E1F78091D400873779F483
:1001000080E50E940601882351F40E944C018FEF84
:100110000E944C018FEF0E944C010E944601809189
:10012000D400833779F480E50E940601882351F4D6
:100130000E944C0180E00E944C0180E00E944C0132
:100140000E9446018091D400883779F480E50E94AE
:100150000601882351F40E944C0180E80E944C0162
:1001600080E80E944C010E9446018091D4008136B3
:1001700079F480E50E940601882351F40E944C0125
:1001800080E00E944C018FEF0E944C010E944601CA
:100190008091D400843679F480E50E94060188239A
:1001A00051F40E944C018FEF0E944C0180E00E94AC
:1001B0004C010E9446018091D400843569F480E5A9
:1001C0000E940601882341F486E00E944C0181E0F0
:1001D0000E944C010E9446018091D400843769F44A
:1001E00080E50E940601882341F486E00E944C01CC
:1001F00080E00E944C010E9446011092D3001092B0
:10020000C20076CF11B88CE080B90895982F84EAA7
:1002100086BF06B607FEFDCF81B1887F883021F00A
:10022000803111F081E0089593B984E886BF06B665
:1002300007FEFDCF91B1987F983111F480E00895C9
:1002400080E0903409F081E0089544EA34E824E93C
:1002500046BF06B607FEFDCF91B1987F983011F0EA
:100260009031B1F783B936BF06B607FEFDCF91B125
:10027000987F903211F0983529F426BF06B604FC19
:10028000FDCFE6CF08950E940601089584E986BF58
:1002900006B604FCFDCF089583B984E886BF06B690
:1002A00007FEFDCF81B190E0887F883209F091E0B0
:1002B000892F089584EC86BF06B607FEFDCF83B173
:1002C000089584E886BF06B607FEFDCF83B1089582
:1002D0001F920F920FB60F9211248F939F93EF935B
:1002E000FF938CB1E091C200F0E0EC52FF4F8083AD
:1002F0009091C2009F5F9093C2008D3021F0809159
:10030000C200803119F481E08093D300FF91EF9116
:100310009F918F910F900FBE0F901F9018958AB1EB
:1003200088618AB980B5866880BD10BC89E189B9C9
:10033000579A08955D9BFECF8CB980E090E00895B8
:10034000FC0104C05D9BFECF8CB93196808188236F
:10035000C9F7089503C05D9BFECF2CB9FC0101963F
:1003600024912223C1F70895DF93CF93CDB7DEB751
:1003700028970FB6F894DEBF0FBECDBFBE016F5FEA
:100380007F4F4AE050E00E94D0010E94A0012896D1
:100390000FB6F894DEBF0FBECDBFCF91DF910895A9
:1003A000FB019F01E8944230C4F04532B4F44A3076
:1003B00029F497FB1EF4909581959F4F642F772722
:1003C0000E940102805D8A330CF0895D8193CB012C
:1003D0000097A1F716F45DE251931082C9010C94C5
:1003E000F101DC01FC01672F71917723E1F732976E
:1003F00004C07C916D9370836291AE17BF07C8F300
:100400000895AA1BBB1B51E107C0AA1FBB1FA6175B
:10041000B70710F0A61BB70B881F991F5A95A9F7AD
:0E04200080959095BC01CD010895F894FFCF12
:10042E00696E707574202777272C2761272C277308
:10043E00272C27642720746F206D6F766520666FDA
:10044E0072776172642C206C6566742C6261636BCA
:10045E00776172642C207269676874206F7220272E
:10046E00782720746F2073746F702C20666F6C6CFD
:10047E006F77656420627920656E746572000D0A6F
:02048E0000006C
:00000001FF
